{
  "contractName": "LicenseRecord",
  "abi": [
    {
      "constant": true,
      "inputs": [],
      "name": "userCount",
      "outputs": [
        {
          "name": "",
          "type": "uint256"
        }
      ],
      "payable": false,
      "stateMutability": "view",
      "type": "function"
    },
    {
      "constant": true,
      "inputs": [
        {
          "name": "",
          "type": "address"
        }
      ],
      "name": "userRecord",
      "outputs": [
        {
          "name": "licenseNumber",
          "type": "address"
        },
        {
          "name": "name",
          "type": "string"
        },
        {
          "name": "phone",
          "type": "string"
        },
        {
          "name": "level",
          "type": "uint8"
        }
      ],
      "payable": false,
      "stateMutability": "view",
      "type": "function"
    },
    {
      "inputs": [],
      "payable": false,
      "stateMutability": "nonpayable",
      "type": "constructor"
    },
    {
      "constant": false,
      "inputs": [
        {
          "name": "_name",
          "type": "string"
        },
        {
          "name": "_phone",
          "type": "string"
        }
      ],
      "name": "register",
      "outputs": [],
      "payable": false,
      "stateMutability": "nonpayable",
      "type": "function"
    },
    {
      "constant": false,
      "inputs": [
        {
          "name": "_uid",
          "type": "address"
        },
        {
          "name": "_status",
          "type": "bool"
        }
      ],
      "name": "issueG1",
      "outputs": [],
      "payable": false,
      "stateMutability": "nonpayable",
      "type": "function"
    },
    {
      "constant": false,
      "inputs": [
        {
          "name": "_uid",
          "type": "address"
        },
        {
          "name": "_status",
          "type": "bool"
        }
      ],
      "name": "issueG2",
      "outputs": [],
      "payable": false,
      "stateMutability": "nonpayable",
      "type": "function"
    },
    {
      "constant": false,
      "inputs": [
        {
          "name": "_uid",
          "type": "address"
        },
        {
          "name": "_status",
          "type": "bool"
        }
      ],
      "name": "issueG",
      "outputs": [],
      "payable": false,
      "stateMutability": "nonpayable",
      "type": "function"
    },
    {
      "constant": true,
      "inputs": [
        {
          "name": "_uid",
          "type": "address"
        }
      ],
      "name": "validate",
      "outputs": [
        {
          "name": "status",
          "type": "string"
        }
      ],
      "payable": false,
      "stateMutability": "view",
      "type": "function"
    },
    {
      "constant": true,
      "inputs": [
        {
          "name": "_uid",
          "type": "address"
        }
      ],
      "name": "checkStatus",
      "outputs": [
        {
          "name": "Level",
          "type": "string"
        }
      ],
      "payable": false,
      "stateMutability": "view",
      "type": "function"
    },
    {
      "constant": true,
      "inputs": [],
      "name": "isOfficer",
      "outputs": [
        {
          "name": "",
          "type": "bool"
        }
      ],
      "payable": false,
      "stateMutability": "view",
      "type": "function"
    }
  ],
  "bytecode": "0x608060405234801561001057600080fd5b50336000806101000a81548173ffffffffffffffffffffffffffffffffffffffff021916908373ffffffffffffffffffffffffffffffffffffffff1602179055506117fe806100606000396000f3fe608060405260043610610099576000357c0100000000000000000000000000000000000000000000000000000000900463ffffffff16806307973ccf1461009e578063207c64fb146100c95780633071fe9114610193578063340190ec146101f05780633ffbd47f146102ba5780634d87b6931461041957806388c90e53146105975780638e98209b146105f4578063916641ba14610623575b600080fd5b3480156100aa57600080fd5b506100b3610680565b6040518082815260200191505060405180910390f35b3480156100d557600080fd5b50610118600480360360208110156100ec57600080fd5b81019080803573ffffffffffffffffffffffffffffffffffffffff169060200190929190505050610686565b6040518080602001828103825283818151815260200191508051906020019080838360005b8381101561015857808201518184015260208101905061013d565b50505050905090810190601f1680156101855780820380516001836020036101000a031916815260200191505b509250505060405180910390f35b34801561019f57600080fd5b506101ee600480360360408110156101b657600080fd5b81019080803573ffffffffffffffffffffffffffffffffffffffff169060200190929190803515159060200190929190505050610797565b005b3480156101fc57600080fd5b5061023f6004803603602081101561021357600080fd5b81019080803573ffffffffffffffffffffffffffffffffffffffff1690602001909291905050506109f5565b6040518080602001828103825283818151815260200191508051906020019080838360005b8381101561027f578082015181840152602081019050610264565b50505050905090810190601f1680156102ac5780820380516001836020036101000a031916815260200191505b509250505060405180910390f35b3480156102c657600080fd5b50610417600480360360408110156102dd57600080fd5b81019080803590602001906401000000008111156102fa57600080fd5b82018360208201111561030c57600080fd5b8035906020019184600183028401116401000000008311171561032e57600080fd5b91908080601f016020809104026020016040519081016040528093929190818152602001838380828437600081840152601f19601f8201169050808301925050505050505091929192908035906020019064010000000081111561039157600080fd5b8201836020820111156103a357600080fd5b803590602001918460018302840111640100000000831117156103c557600080fd5b91908080601f016020809104026020016040519081016040528093929190818152602001838380828437600081840152601f19601f820116905080830192505050505050509192919290505050610d7a565b005b34801561042557600080fd5b506104686004803603602081101561043c57600080fd5b81019080803573ffffffffffffffffffffffffffffffffffffffff169060200190929190505050610f26565b604051808573ffffffffffffffffffffffffffffffffffffffff1673ffffffffffffffffffffffffffffffffffffffff16815260200180602001806020018460048111156104b257fe5b60ff168152602001838103835286818151815260200191508051906020019080838360005b838110156104f25780820151818401526020810190506104d7565b50505050905090810190601f16801561051f5780820380516001836020036101000a031916815260200191505b50838103825285818151815260200191508051906020019080838360005b8381101561055857808201518184015260208101905061053d565b50505050905090810190601f1680156105855780820380516001836020036101000a031916815260200191505b50965050505050505060405180910390f35b3480156105a357600080fd5b506105f2600480360360408110156105ba57600080fd5b81019080803573ffffffffffffffffffffffffffffffffffffffff1690602001909291908035151590602001909291905050506110b3565b005b34801561060057600080fd5b50610609611310565b604051808215151515815260200191505060405180910390f35b34801561062f57600080fd5b5061067e6004803603604081101561064657600080fd5b81019080803573ffffffffffffffffffffffffffffffffffffffff169060200190929190803515159060200190929190505050611378565b005b60025481565b606060048081111561069457fe5b600360008473ffffffffffffffffffffffffffffffffffffffff1673ffffffffffffffffffffffffffffffffffffffff16815260200190815260200160002060030160009054906101000a900460ff1660048111156106ef57fe5b1415610732576040805190810160405280600581526020017f56616c69640000000000000000000000000000000000000000000000000000008152509050610792565b606060405190810160405280602681526020017f506c6561736520636865636b2073746174757320746f206b6e6f77206d6f726581526020017f20696e666f2e000000000000000000000000000000000000000000000000000081525090505b919050565b6000809054906101000a900473ffffffffffffffffffffffffffffffffffffffff1673ffffffffffffffffffffffffffffffffffffffff163373ffffffffffffffffffffffffffffffffffffffff1614151561085b576040517f08c379a00000000000000000000000000000000000000000000000000000000081526004018080602001828103825260108152602001807f4163636573732044656e6965642121210000000000000000000000000000000081525060200191505060405180910390fd5b610864826115b0565b15156108fe576040517f08c379a00000000000000000000000000000000000000000000000000000000081526004018080602001828103825260298152602001807f43616e646964617465206861736e27742070617373656420547269616c20457881526020017f616d696e6174696f6e000000000000000000000000000000000000000000000081525060400191505060405180910390fd5b6001151581151514156109f15781600360008473ffffffffffffffffffffffffffffffffffffffff1673ffffffffffffffffffffffffffffffffffffffff16815260200190815260200160002060000160006101000a81548173ffffffffffffffffffffffffffffffffffffffff021916908373ffffffffffffffffffffffffffffffffffffffff1602179055506004600360008473ffffffffffffffffffffffffffffffffffffffff1673ffffffffffffffffffffffffffffffffffffffff16815260200190815260200160002060030160006101000a81548160ff021916908360048111156109eb57fe5b02179055505b5050565b606060006004811115610a0457fe5b600360008473ffffffffffffffffffffffffffffffffffffffff1673ffffffffffffffffffffffffffffffffffffffff16815260200190815260200160002060030160009054906101000a900460ff166004811115610a5f57fe5b1415610aa2576040805190810160405280600e81526020017f4e6f7420526567697374657265640000000000000000000000000000000000008152509050610d75565b60016004811115610aaf57fe5b600360008473ffffffffffffffffffffffffffffffffffffffff1673ffffffffffffffffffffffffffffffffffffffff16815260200190815260200160002060030160009054906101000a900460ff166004811115610b0a57fe5b1415610b7457606060405190810160405280602481526020017f5265676973746572656420627574204e6f204578616d696e6174696f6e20506181526020017f73736564000000000000000000000000000000000000000000000000000000008152509050610d75565b60026004811115610b8157fe5b600360008473ffffffffffffffffffffffffffffffffffffffff1673ffffffffffffffffffffffffffffffffffffffff16815260200190815260200160002060030160009054906101000a900460ff166004811115610bdc57fe5b1415610c1f576040805190810160405280600281526020017f47310000000000000000000000000000000000000000000000000000000000008152509050610d75565b60036004811115610c2c57fe5b600360008473ffffffffffffffffffffffffffffffffffffffff1673ffffffffffffffffffffffffffffffffffffffff16815260200190815260200160002060030160009054906101000a900460ff166004811115610c8757fe5b1415610cca576040805190810160405280600281526020017f47320000000000000000000000000000000000000000000000000000000000008152509050610d75565b600480811115610cd657fe5b600360008473ffffffffffffffffffffffffffffffffffffffff1673ffffffffffffffffffffffffffffffffffffffff16815260200190815260200160002060030160009054906101000a900460ff166004811115610d3157fe5b1415610d74576040805190810160405280600181526020017f47000000000000000000000000000000000000000000000000000000000000008152509050610d75565b5b919050565b610d833361162f565b151515610df8576040517f08c379a00000000000000000000000000000000000000000000000000000000081526004018080602001828103825260138152602001807f416c726561647920526567697374657265642e0000000000000000000000000081525060200191505060405180910390fd5b600033905082600360008373ffffffffffffffffffffffffffffffffffffffff1673ffffffffffffffffffffffffffffffffffffffff1681526020019081526020016000206001019080519060200190610e5392919061172d565b5081600360008373ffffffffffffffffffffffffffffffffffffffff1673ffffffffffffffffffffffffffffffffffffffff1681526020019081526020016000206002019080519060200190610eaa92919061172d565b506001600360008373ffffffffffffffffffffffffffffffffffffffff1673ffffffffffffffffffffffffffffffffffffffff16815260200190815260200160002060030160006101000a81548160ff02191690836004811115610f0a57fe5b0217905550600260008154809291906001019190505550505050565b60036020528060005260406000206000915090508060000160009054906101000a900473ffffffffffffffffffffffffffffffffffffffff1690806001018054600181600116156101000203166002900480601f016020809104026020016040519081016040528092919081815260200182805460018160011615610100020316600290048015610ff85780601f10610fcd57610100808354040283529160200191610ff8565b820191906000526020600020905b815481529060010190602001808311610fdb57829003601f168201915b505050505090806002018054600181600116156101000203166002900480601f0160208091040260200160405190810160405280929190818152602001828054600181600116156101000203166002900480156110965780601f1061106b57610100808354040283529160200191611096565b820191906000526020600020905b81548152906001019060200180831161107957829003601f168201915b5050505050908060030160009054906101000a900460ff16905084565b6000809054906101000a900473ffffffffffffffffffffffffffffffffffffffff1673ffffffffffffffffffffffffffffffffffffffff163373ffffffffffffffffffffffffffffffffffffffff16141515611177576040517f08c379a00000000000000000000000000000000000000000000000000000000081526004018080602001828103825260108152602001807f4163636573732044656e6965642121210000000000000000000000000000000081525060200191505060405180910390fd5b611180826116ae565b151561121a576040517f08c379a000000000000000000000000000000000000000000000000000000000815260040180806020018281038252602b8152602001807f43616e646964617465206861736e277420706173736564205772697474656e2081526020017f4578616d696e6174696f6e00000000000000000000000000000000000000000081525060400191505060405180910390fd5b60011515811515141561130c5781600360008473ffffffffffffffffffffffffffffffffffffffff1673ffffffffffffffffffffffffffffffffffffffff16815260200190815260200160002060000160006101000a81548173ffffffffffffffffffffffffffffffffffffffff021916908373ffffffffffffffffffffffffffffffffffffffff16021790555060038060008473ffffffffffffffffffffffffffffffffffffffff1673ffffffffffffffffffffffffffffffffffffffff16815260200190815260200160002060030160006101000a81548160ff0219169083600481111561130657fe5b02179055505b5050565b60008060009054906101000a900473ffffffffffffffffffffffffffffffffffffffff1673ffffffffffffffffffffffffffffffffffffffff163373ffffffffffffffffffffffffffffffffffffffff1614156113705760019050611375565b600090505b90565b6000809054906101000a900473ffffffffffffffffffffffffffffffffffffffff1673ffffffffffffffffffffffffffffffffffffffff163373ffffffffffffffffffffffffffffffffffffffff1614151561143c576040517f08c379a00000000000000000000000000000000000000000000000000000000081526004018080602001828103825260108152602001807f4163636573732044656e6965642121210000000000000000000000000000000081525060200191505060405180910390fd5b6114458261162f565b15156114b9576040517f08c379a00000000000000000000000000000000000000000000000000000000081526004018080602001828103825260208152602001807f43616e646964617465206861736e27742072656769737465726564207965742e81525060200191505060405180910390fd5b6001151581151514156115ac5781600360008473ffffffffffffffffffffffffffffffffffffffff1673ffffffffffffffffffffffffffffffffffffffff16815260200190815260200160002060000160006101000a81548173ffffffffffffffffffffffffffffffffffffffff021916908373ffffffffffffffffffffffffffffffffffffffff1602179055506002600360008473ffffffffffffffffffffffffffffffffffffffff1673ffffffffffffffffffffffffffffffffffffffff16815260200190815260200160002060030160006101000a81548160ff021916908360048111156115a657fe5b02179055505b5050565b6000600360048111156115bf57fe5b600360008473ffffffffffffffffffffffffffffffffffffffff1673ffffffffffffffffffffffffffffffffffffffff16815260200190815260200160002060030160009054906101000a900460ff16600481111561161a57fe5b1415611629576001905061162a565b5b919050565b60006001600481111561163e57fe5b600360008473ffffffffffffffffffffffffffffffffffffffff1673ffffffffffffffffffffffffffffffffffffffff16815260200190815260200160002060030160009054906101000a900460ff16600481111561169957fe5b14156116a857600190506116a9565b5b919050565b6000600260048111156116bd57fe5b600360008473ffffffffffffffffffffffffffffffffffffffff1673ffffffffffffffffffffffffffffffffffffffff16815260200190815260200160002060030160009054906101000a900460ff16600481111561171857fe5b14156117275760019050611728565b5b919050565b828054600181600116156101000203166002900490600052602060002090601f016020900481019282601f1061176e57805160ff191683800117855561179c565b8280016001018555821561179c579182015b8281111561179b578251825591602001919060010190611780565b5b5090506117a991906117ad565b5090565b6117cf91905b808211156117cb5760008160009055506001016117b3565b5090565b9056fea165627a7a72305820bf4440098ddb41ac4dd023e48cec0ce49d2ed8cbcbcfb1072d6a7b5c451feb5e0029",
  "source": "pragma solidity ^0.5.0;\r\n\r\ncontract LicenseRecord{\r\n    address officer;\r\n    address owner;\r\n    uint public userCount;\r\n    // string status;\r\n    enum licenseLevel {none,registered, g1, g2, g}\r\n\r\n    struct user{\r\n        address licenseNumber;\r\n        string name;\r\n        string phone;\r\n        licenseLevel level;\r\n    }\r\n    \r\n    constructor() public {\r\n        officer = msg.sender;\r\n    }\r\n    \r\n    modifier onlyOfficer(){\r\n        require(msg.sender == officer, \"Access Denied!!!\");\r\n        _;\r\n    }\r\n    \r\n    mapping (address => user) public userRecord;\r\n\r\n    \r\n    function register(string memory _name, string memory _phone) public {\r\n            require(!checkRegistration(msg.sender), \"Already Registered.\");\r\n            address _uid = msg.sender;\r\n            userRecord[_uid].name = _name;\r\n            userRecord[_uid].phone = _phone;\r\n            userRecord[_uid].level = licenseLevel.registered;\r\n            userCount++;\r\n        }\r\n    \r\n    function checkRegistration(address _uid) private view returns(bool){\r\n        if(userRecord[_uid].level == licenseLevel.registered){\r\n            return true;\r\n        }\r\n    }\r\n    \r\n    function issueG1(address _uid, bool _status) onlyOfficer public {\r\n        require(checkRegistration(_uid), \"Candidate hasn't registered yet.\");\r\n        if(_status  == true){\r\n            userRecord[_uid].licenseNumber = _uid;\r\n            userRecord[_uid].level = licenseLevel.g1;\r\n        }\r\n    }\r\n    \r\n    function checkG1(address _uid) private view returns(bool){\r\n        if(userRecord[_uid].level == licenseLevel.g1){\r\n            return true;\r\n        }\r\n    }\r\n    \r\n    function issueG2(address _uid, bool _status) onlyOfficer public {\r\n        require(checkG1(_uid), \"Candidate hasn't passed Written Examination\");\r\n        if(_status  == true){\r\n            userRecord[_uid].licenseNumber = _uid;\r\n            userRecord[_uid].level = licenseLevel.g2;\r\n        }\r\n    }\r\n    \r\n    function checkG2(address _uid) private view returns(bool){\r\n        if(userRecord[_uid].level == licenseLevel.g2){\r\n            return true;\r\n        }\r\n    }\r\n    \r\n    function issueG(address _uid, bool _status) onlyOfficer public {\r\n        require(checkG2(_uid), \"Candidate hasn't passed Trial Examination\");\r\n        if(_status  == true){\r\n            userRecord[_uid].licenseNumber = _uid;\r\n            userRecord[_uid].level = licenseLevel.g;\r\n        }\r\n    }\r\n    \r\n    function validate(address _uid) public view returns(string memory status){\r\n        if (userRecord[_uid].level == licenseLevel.g){\r\n            return \"Valid\";\r\n        }\r\n        else {\r\n            return \"Please check status to know more info.\";\r\n        }\r\n    }\r\n    \r\n    function checkStatus(address _uid) public view returns(string memory Level){\r\n        if(userRecord[_uid].level == licenseLevel.none){\r\n            return \"Not Registered\";\r\n        }\r\n        else{\r\n            if(userRecord[_uid].level == licenseLevel.registered){\r\n            return \"Registered but No Examination Passed\";\r\n        }\r\n        else{\r\n            if(userRecord[_uid].level == licenseLevel.g1){\r\n            return \"G1\";\r\n        }\r\n        else {\r\n            if(userRecord[_uid].level == licenseLevel.g2){\r\n            return \"G2\";\r\n        }\r\n        else {\r\n            if(userRecord[_uid].level == licenseLevel.g){\r\n            return \"G\";\r\n        }\r\n        }\r\n        }\r\n        }\r\n    }\r\n    \r\n}\r\n    function isOfficer() public view returns(bool) {\r\n        if(msg.sender == officer) {\r\n            return true;\r\n        }\r\n        return false;\r\n    }\r\n\r\n    //function getAll() public view returns (address[] memory users){\r\n    //    return userList;\r\n    //}\r\n}\r\n",
  "sourcePath": "/home/avina/NodeJS/licenseRecord/contracts/LicenseRecord.sol",
  "compiler": {
    "name": "solc",
    "version": "0.5.0+commit.1d4f565a.Emscripten.clang"
  },
  "schemaVersion": "3.2.0",
  "updatedAt": "2020-06-09T05:29:26.509Z",
  "networkType": "ethereum",
  "devdoc": {
    "methods": {}
  },
  "userdoc": {
    "methods": {}
  }
}